:020000040800F2
:10000000280D002045010008A71600083F0E000833
:10001000A516000807020008C11D00080000000026
:100020000000000000000000000000004F1B00085E
:1000300049040008000000004D1B0008511B000887
:100040005F0100085F0100085F0100085F01000810
:100050005F0100085F0100085F0100085F01000800
:100060005F0100085F0100085F0100085F010008F0
:100070005F0100085F0100085F0100085F010008E0
:100080005F0100085F0100085F0100085F010008D0
:100090005F0100085F0100085F0100085F010008C0
:1000A0005F0100085F0100085F0100085F010008B0
:1000B0005F0100085F0100085F0100085F010008A0
:1000C0005F0100085F0100085F0100085F01000890
:1000D0005F0100085F0100085F0100085F01000880
:1000E0005F0100085F0100085F0100085F01000870
:1000F0005F0100085F0100085F0100085F01000860
:100100005F0100085F0100085F0100085F0100084F
:100110005F0100085F0100085F0100085F0100083F
:100120005F0100085F0100085F0100085F0100082F
:10013000DFF80CD000F02AF80048004761220008E0
:10014000280D00200648804706480047FEE7FEE7E6
:10015000FEE7FEE7FEE7FEE7FEE7FEE7FEE7FEE777
:10016000A51B000831010008D2B201E000F8012B04
:10017000491EFBD270470022F6E710B513460A4627
:1001800004461946FFF7F0FF204610BD064C074D08
:1001900006E0E06840F0010394E807009847103457
:1001A000AC42F6D3FFF7C8FF982B0008B82B000825
:1001B00070B58C1810F8015B15F0070301D110F829
:1001C000013B2A1106D110F8012B03E010F8016B56
:1001D00001F8016B5B1EF9D12B0705D40023521ED9
:1001E0000DD401F8013BFAE710F8013BCB1A921C41
:1001F00003E013F8015B01F8015B521EF9D5A1423F
:10020000D8D3002070BDFEE71CB501210420CDE944
:1002100000010448082335218268042001F02FFCE6
:100220001CBD0000940100201CB501210420CDE973
:100230000001044808233521426A442001F01FFCD4
:100240001CBD0000940100201CB501210420CDE953
:100250000001044808232121026C042001F00FFC56
:100260001CBD0000940100201CB501240420CDE930
:1002700000040948082335218268042001F0FFFBAF
:100280000820CDE90004054807232C21027804202A
:1002900001F0BEFB1CBD0000E8010020600400204E
:1002A0001CB501240420CDE90004094808233521A8
:1002B000426A442001F0E3FB0820CDE90004054830
:1002C00007232C210278442001F0A2FB1CBD000072
:1002D000E8010020610400201CB501240420CDE9C0
:1002E0000004094808232121026C042001F0C7FB07
:1002F0000820CDE9000405480723182102780420CE
:1003000001F086FB1CBD0000E80100206204002013
:100310001CB501240420CDE900040948082321214B
:10032000C26D442001F0ABFB0820CDE90004054874
:10033000072318210278442001F06AFB1CBD00004D
:10034000E8010020630400201CB501240420CDE94D
:100350000004094808230D21826F042001F08FFB5F
:100360000820CDE900040548042107230278084647
:1003700001F04EFB1CBD0000E801002064040020D9
:100380001CB501240420CDE90004094808230D21EF
:10039000D0F89420442001F072FB0820CDE900043D
:1003A0000448072304210278442001F031FB1CBDDE
:1003B000E8010020650400201CB501240420CDE9DB
:1003C00000040948082335218268042001F057FB06
:1003D0000820CDE90004054807232C2102680420E9
:1003E00001F016FB1CBD00009002002068040020F4
:1003F0001CB501240420CDE9000409480823352157
:10040000426A442001F03BFB0820CDE90004054886
:1004100007232C210278442001F0FAFA1CBD0000C9
:10042000900200206C0400201CB501210420CDE9BD
:1004300000010448082335218268042001F01FFBD5
:100440001CBD0000C8020020704770472DE9F84F1E
:10045000DFF8B8A100220AF1040B144601274FF07F
:100460000F090BF1040E00BF0B6807FA04F52B40CF
:10047000AB4274D1DFF898C14E68A6EB0C08664514
:100480002BD00DDC032E34D005DC36B3012E19D071
:10049000022E2FD11BE0112E16D0122E2AD119E0D8
:1004A000B8F5881F19D006DCB8F5803F15D0B8F52F
:1004B000801F1FD111E0B8F5001F0ED0B8F5041F42
:1004C00018D10AE0CA6815E0CA68121D12E0CA68AD
:1004D00008320FE0CA680C320CE08A682AB1012A9F
:1004E0004FF0080203D0456104E0042202E00561F8
:1004F00000E00022FF2B01D8064601E000F10406CF
:100500004FEA840501D9A5F12005D6F800C009FA03
:1005100005F82CEA080C02FA05F54CEA050CC6F8B9
:1005200000C04D68ED006AD53A4DAE6946F001064F
:10053000AE61AD6924F0030605F001050095364D66
:1005400006EB050CDCF80850A6074FEA167809FA06
:1005500008F6B543314EB04202D100261AE04EE013
:100560002F4EB04201D1012614E02E4EB04201D1EF
:1005700002260FE02C4EB04201D103260AE02B4E9A
:10058000B04201D1042605E0294EB04201D1052632
:1005900000E0062606FA08F62E43CCF808604D68FF
:1005A000DAF80060ED03554601D51E4300E09E4396
:1005B0002E604D68AD0305D5DBF800601E43CBF817
:1005C000006004E0DBF800509D43CBF800504D681C
:1005D000DEF80060ED02754601D51E4300E09E4343
:1005E0002E604D68AD0205D5084D0C352E681E43B2
:1005F0002E6004E0054E0C3635689D433560641C62
:10060000102CFFF431AFBDE8F88F0000000401406A
:1006100000001110001002400000014000080140DD
:10062000000C01400010014000140140001801407E
:10063000001C01408068084000D0012070470AB1CA
:10064000016170470904FBE70148806870470000BA
:10065000700400200248816802781144816070476C
:1006600070040020074810B5016841F010010160D6
:10067000032000F065F8002000F006F800F024F8F0
:10068000002010BD0020024070B50D4D04464FF40F
:100690007A712878B1FBF0F00A490968B1FBF0F0F3
:1006A00000F0EEFA48B9102C07D200222146501E65
:1006B00000F026F800206C6070BD012070BD0000C5
:1006C000700400207C0400200B4808B5816941F0CB
:1006D00001018161816901F001010091C16941F06D
:1006E0008051C161C06900F08050009003484168AA
:1006F00021F0E061416008BD0010024000000140AF
:10070000F0B40E4B1B680C46C3F30223C3F107057C
:10071000042D00D90425191D072901D2002300E06A
:10072000DB1E012606FA05F1491E214099409E4034
:10073000761E16403143F0BC00F0B6BF0CED00E071
:10074000064900F0070208684FF6FF03184040EA28
:100750000220034A10430860704700000CED00E0DF
:100760000000FA052DE9F047DFF8548105460E46F2
:10077000D8F8000000F00700B0420CD2D8F8001002
:1007800021F007013143C8F80010D8F8000000F04C
:100790000700B0426FD128684A4C810712D5400744
:1007A00003D5606840F4E06060602878000703D5F6
:1007B000606840F4605060606068A96820F0F000F4
:1007C000084360602878C00744D06868012816D0C4
:1007D0002168022816D0890700294CDA616821F0C7
:1007E000030101436160FFF72FFF6968074641F28B
:1007F000883001290ED00229814618D026E02168D0
:100800008903E9E78901E7E7FFF71EFFC11B4945B7
:1008100001D918E081466068C0F381000128F3D156
:1008200018E000BFFFF710FFC11B49450BD86068F7
:10083000C0F381000228F5D10CE000BFFFF704FFF0
:10084000C11B494502D90320BDE8F087606810F05C
:100850000C0FF3D1D8F80010404601F00701B14267
:100860000BD9016821F0070131430160006800F0F5
:100870000700B04201D00120E6E72878400705D5FF
:100880006068E96820F4E060084360602878000749
:1008900006D56068296920F4605040EAC1006060B4
:1008A00000F036F86168084AC1F30311515CC84092
:1008B000064908600020FFF7E7FE0020C4E70000BB
:1008C00000200240001002404E2B00087C04002053
:1008D0000448054900684968044AC1F30221515C93
:1008E000C84070477C040020001002405E2B0008C6
:1008F0000448054900684968044AC1F3C221515CB3
:10090000C84070477C040020001002405E2B0008A5
:1009100012A185B00FC98DE80F0014A0144A006819
:1009200004905168134801F00C03042B10D0082BDD
:100930000ED1C1F38343C9031DF803000AD55168E2
:1009400004AAC1F34041515C0A4A5043B0FBF1F0A4
:1009500005B0704708494843FAE700000203040560
:10096000060708090A0B0C0D0E0F101001020000FB
:100970000010024000127A0000093D002DE9F84FF6
:1009800004460078B94DC00748D06868C0F38100BC
:10099000012807D06868C0F38100022809D168687F
:1009A000C00306D52868800338D5606800286FD05A
:1009B00034E06068B0F5803F0BD010B1B0F5A02FE7
:1009C00011D0286820F480302860286820F4802026
:1009D00002E0286840F480302860606888B1FFF742
:1009E00033FE064609E0286840F480202860F0E7DE
:1009F000FFF72AFE801B642875D828688003F7D586
:100A00000CE0FFF721FE064605E000BFFFF71CFEE5
:100A1000801B6428F0D828688003F7D42078944E8F
:100A200080074FF001094FF000083BD5686810F0CF
:100A30000C0F07D06868C0F38100022809D16868EC
:100A4000C00306D42868800714D5206901281FD167
:100A500010E02069B0B1C6F80090FFF7F5FD074639
:100A600005E000BFFFF7F0FDC01B0228C4D82868CE
:100A70008007F7D52868616920F0F80040EAC100D6
:100A800028600FE0C6F80080FFF7DEFD074606E0AD
:100A9000E9E000BFFFF7D8FDC01B022823D8286873
:100AA0008007F7D4207800072CD57248A169D9B106
:100AB000C0F80090FFF7C8FD074604E0FFF7C4FD4B
:100AC000C01B02280FD8686A8007F7D56A484FF420
:100AD000FA510068B0FBF1F0009000BF0098411E91
:100AE0000091FAD20EE080E0C0F80080FFF7ACFD84
:100AF000074604E0FFF7A8FDC01B022875D8686A06
:100B00008007F7D42078400760D5E8690027C00047
:100B100008D4E86940F08050E861E869012700F0F6
:100B20008050009055480168C90513D40168834678
:100B300041F480710160FFF787FD824606E000BF47
:100B4000FFF782FDA0EB0A0064284ED8DBF8000016
:100B5000C005F5D5E06801280AD008B1052813D0F2
:100B6000286A20F001002862286A20F0040002E0D0
:100B7000286A40F001002862E06841F2883B98B1A1
:100B8000FFF762FD82460BE0286A40F0040028620D
:100B9000EEE700BFFFF758FDA0EB0A0159455AD810
:100BA000286A8007F6D50CE0FFF74EFD824605E087
:100BB000FFF74AFDA0EB0A0159454CD8286A800787
:100BC000F6D41FB1E86920F08050E861E06988B38D
:100BD0006968C1F38101022945D00228C6F8608006
:100BE00004D0FFF731FD044638E034E0FFF72CFD78
:100BF000074604E0FFF728FDC01B02282BD8286811
:100C00008001F7D4206AB0F5803F05D16868A168FB
:100C100020F4003008436860D4E90801084369689B
:100C200021F4741108436860C6F86090FFF70CFD6A
:100C3000044606E015E000BFFFF706FD001B022892
:100C400009D828688001F7D50BE000BFFFF7FCFC4E
:100C5000001B022802D90320BDE8F88F2868800114
:100C6000F4D40020F8E70120F6E70000001002406D
:100C700000004242800442427C0400200070004098
:100C800010B5401EB0F1807F01D3012010BD4FF0A0
:100C9000E02460610F21601700F006FD0020A061D4
:100CA00007202061002010BD10F8391F407808434C
:100CB000704770B5040004D094F83900002510B1D5
:100CC00006E0012070BD84F83850204600F022F87C
:100CD000242084F839002068C16821F40051C160E3
:100CE000204600F083FF2068016921F490410161F2
:100CF0002068416921F02A0141612068C16841F4FE
:100D00000051C160E563202084F8390084F83A007E
:100D1000002070BD30B585B0002400940194029489
:100D2000039400681449884224D11448816941F42D
:100D300080418161816901F480410491816941F0C0
:100D40000401816180690E4D00F0040004904FF4AD
:100D5000007000900220019003200390694628460D
:100D6000FFF774FB2815CDE9000469462846029474
:100D7000FFF76CFB05B030BD0038014000100240A9
:100D8000000801402DE9F843044690F839001F4659
:100D900016460D46202850D1A5B19EB194F83800D2
:100DA00001284AD0012084F838004FF00008C4F828
:100DB0003C80212084F83900FFF746FCA684814658
:100DC000E68426E00120BDE8F883E08C401EE08444
:100DD000A0684B46B0F5805F4FF000024FF08001F5
:100DE0002046009703D000F0B9FFE8B90DE000F00D
:100DF000B5FFC8B928882168C0F308004860206999
:100E000008B16D1C05E0AD1C03E0216815F8010B6D
:100E10004860E08C0028D8D14B4600224021204673
:100E2000009700F09BFF08B10320CCE7202084F856
:100E3000390084F838800020C5E70220C3E7FEE7C8
:100E400010B5074C074920680830206040680860EA
:100E500000F03AFC2068BDE8104001F02FB9000016
:100E6000E8020020EC02002010B5074C074920687A
:100E7000103020604068086000F026FC2068BDE863
:100E8000104001F01BB90000E8020020EC02002035
:100E900010B5074C0749206818302060406808608A
:100EA00000F012FC2068BDE8104001F007B9000016
:100EB000E8020020EC02002000B50F48104B85B07E
:100EC00002780E481B780DF1080C00880193C1B21E
:100ED000C0F307208CE807000A48007800900A4811
:100EE00003780A4802780A4801780A48007801F035
:100EF000D3F905B000BD00006C0400206804002098
:100F000065040020640400206304002062040020C3
:100F1000610400206004002000B50F48104B85B02C
:100F200002780E481B780DF1080C00880193C1B2BD
:100F3000C0F307208CE807000A48007800900A48B0
:100F400003780A4802780A4801780A48007801F0D4
:100F5000A3F905B000BD00006C0400206804002067
:100F60006504002064040020630400206204002063
:100F7000610400206004002000B50F48104B85B0CC
:100F800002780E481B780DF1080C00880193C1B25D
:100F9000C0F307208CE807000A48007800900A4850
:100FA00003780A4802780A4801780A48007801F074
:100FB00073F905B000BD00006C0400206804002037
:100FC0006504002064040020630400206204002003
:100FD000610400206004002000B50F48104B85B06C
:100FE00002780E481B780DF1080C00880193C1B2FD
:100FF000C0F307208CE807000A48007800900A48F0
:1010000003780A4802780A4801780A48007801F013
:1010100043F905B000BD00006C0400206804002006
:1010200065040020640400206304002062040020A2
:10103000610400206004002000B50F48104B85B00B
:1010400002780E481B780DF1080C00880193C1B29C
:10105000C0F307208CE807000A48007800900A488F
:1010600003780A4802780A4801780A48007801F0B3
:1010700013F905B000BD00006C04002068040020D6
:101080006504002064040020630400206204002042
:10109000610400206004002000B50F48104B85B0AB
:1010A00002780E481B780DF1080C00880193C1B23C
:1010B000C0F307208CE807000A48007800900A482F
:1010C00003780A4802780A4801780A48007801F053
:1010D000E3F805B000BD00006C04002068040020A7
:1010E00065040020640400206304002062040020E2
:1010F000610400206004002000B50F48104B85B04B
:1011000002780E481B780DF1080C00880193C1B2DB
:10111000C0F307208CE807000A48007800900A48CE
:1011200003780A4802780A4801780A48007801F0F2
:10113000B3F805B000BD00006C0400206804002076
:101140006504002064040020630400206204002081
:10115000610400206004002000B50F48104B85B0EA
:1011600002780E481B780DF1080C00880193C1B27B
:10117000C0F307208CE807000A48007800900A486E
:1011800003780A4802780A4801780A48007801F092
:1011900083F805B000BD00006C0400206804002046
:1011A0006504002064040020630400206204002021
:1011B000610400206004002070477047704770474A
:1011C0007CB500200825CDE900500A4C07232C21CE
:1011D0002278442000F01CFC20780723401EC2B275
:1011E00022700120CDE900502C21442000F010FC99
:1011F0007CBD0000610400207CB500200825CDE9FD
:1012000000500A4C072318212278042000F000FC2B
:1012100020780723401EC2B222700120CDE9005081
:101220001821042000F0F4FB7CBD000062040020C3
:101230007CB500200825CDE900500A4C0723182171
:101240002278442000F0E4FB20780723401EC2B23D
:1012500022700120CDE900501821442000F0D8FB75
:101260007CBD0000630400207CB500200825CDE98A
:1012700000500A4C042107232278084600F0C8FBDE
:1012800020780421401EC2B222700120CDE9005016
:101290000723084600F0BCFB7CBD0000640400206E
:1012A0007CB500200825CDE900500A4C0723042115
:1012B0002278442000F0ACFB20780723401EC2B205
:1012C00022700120CDE900500421442000F0A0FB51
:1012D0007CBD0000650400207CB500200825CDE918
:1012E0000050094C07232C210420226800F090FBB9
:1012F00022680120521E2260CDE9005007232C21D4
:10130000042000F085FB7CBD680400207CB5002033
:101310000825CDE900500A4C07232C2122784420CF
:1013200000F076FB20780723401EC2B22270012015
:10133000CDE900502C21442000F06AFB7CBD000068
:101340006C040020704700007CB500200825CDE922
:1013500000500A4C07232C212278042000F058FB6F
:1013600020780723401EC2B222700120CDE9005030
:101370002C21042000F04CFB7CBD00006004002008
:1013800070477047704700007CB500200825CDE904
:1013900000500A4C07232C212278042000F038FB4F
:1013A00020780723401CC2B222700120CDE90050F2
:1013B0002C21042000F02CFB7CBD000060040020E8
:1013C0007CB500200825CDE900500A4C07232C21CC
:1013D0002278442000F01CFB20780723401CC2B276
:1013E00022700120CDE900502C21442000F010FB98
:1013F0007CBD0000610400207CB500200825CDE9FB
:1014000000500A4C072318212278042000F000FB2A
:1014100020780723401CC2B222700120CDE9005081
:101420001821042000F0F4FA7CBD000062040020C2
:101430007CB500200825CDE900500A4C072318216F
:101440002278442000F0E4FA20780723401CC2B23E
:1014500022700120CDE900501821442000F0D8FA74
:101460007CBD0000630400207CB500200825CDE988
:1014700000500A4C042107232278084600F0C8FADD
:1014800020780421401CC2B222700120CDE9005016
:101490000723084600F0BCFA7CBD0000640400206D
:1014A0007CB500200825CDE900500A4C0723042113
:1014B0002278442000F0ACFA20780723401CC2B206
:1014C00022700120CDE900500421442000F0A0FA50
:1014D0007CBD0000650400207CB500200825CDE916
:1014E0000050094C07232C210420226800F090FAB8
:1014F00022680120521C2260CDE9005007232C21D4
:10150000042000F085FA7CBD680400207CB5002032
:101510000825CDE900500A4C07232C2122784420CD
:1015200000F076FA20780723401CC2B22270012016
:10153000CDE900502C21442000F06AFA7CBD000067
:101540006C040020704700002DE9F04F85B00024A6
:1015500041480094019402940394816941F0800110
:101560008161816901F080010491816941F010017C
:101570008161816901F010010491816941F02001CC
:101580008161816901F020010491816941F48071D8
:101590008161816901F480710491816941F00401E4
:1015A0008161816901F004010491816941F00801C0
:1015B00081618069DFF8A49000F008004FF4807525
:1015C0000490002229464846FFF739F8DFF890A03A
:1015D000002283215046FFF732F8DFF888B045F249
:1015E000F857002239465846FFF729F84FF40048CB
:1015F000002241461C48FFF722F8009503260125EA
:101600000396CDE9015469464846FEF71FFF832043
:10161000CDE90005CDE9024669465046FEF716FFC2
:1016200000970396CDE9015469465846FEF70EFF30
:101630004FF4AA708DE8310069460B48FEF706FFAB
:10164000CDF800800396CDE9015469460648FEF7BF
:10165000FDFE05B0BDE8F08F00100240001C014007
:101660000010014000140140002001400C4810B55A
:101670000A4901604FF4E1314160002181600C2290
:10168000C160C0E904128161C161FFF712FB00284B
:1016900003D0BDE81040FEF7D8BE10BD00380140B1
:1016A00080080020FEE770470907090E002806DAC7
:1016B00000F00F0000F1E02080F8141D704700F1E9
:1016C000E02080F80014704730B40021084B0A462F
:1016D0005FF0000003EBC004401CC0B262548028DD
:1016E000F8D3491CC9B20829F2D330BC00F00AB9BA
:1016F0008004002010B57F2816D83F2914D807236E
:10170000A3EBD10301F00701C1F107040121A140BE
:10171000064CDBB204EBC000002AC25CC9B201D0A7
:101720000A4300E08A43C25410BD00008004002038
:101730002DE9F05F994690468A468346494502D98D
:101740004D46564601E055464E465846C34502D9D9
:10175000444607460EE0044647460BE05146204605
:101760000A9AFFF7C7FF494620460A9AFFF7C2FFC9
:10177000641CE4B2BC42F1D92C460BE02146584629
:101780000A9AFFF7B7FF214640460A9AFFF7B2FFD1
:10179000641CE4B2B442F1D9BDE8F05F00F0B2B825
:1017A00010B5514C01224FF4FC712046FEF747FF63
:1017B000012203214D48FEF742FF0122D1034C488C
:1017C000FEF73DFF012210212046FEF738FF64207E
:1017D00000F006FB002210212046FEF730FF6420B7
:1017E00000F0FEFA012210212046FEF728FF00211A
:1017F000AE2000F073F90021022000F06FF9002103
:10180000102000F06BF90021402000F067F9002162
:10181000812000F063F90021CF2000F05FF9002162
:10182000A12000F05BF90021C82000F057F9002149
:10183000A62000F053F90021A82000F04FF9002164
:101840003F2000F04BF90021D32000F047F90021A0
:10185000084600F043F90021D52000F03FF90021AF
:10186000802000F03BF90021D92000F037F9002159
:10187000F12000F033F90021DA2000F02FF90021E7
:10188000122000F02BF90021DB2000F027F90021C5
:10189000402000F023F90021202000F01FF9002152
:1018A000022000F01BF900218D2000F017F9002123
:1018B000142000F013F90021A42000F00FF90021FA
:1018C000A62000F00BF90021AF2000F007F900215D
:1018D000AF2000F003F9FFF7F7FE0021BDE810404C
:1018E000084600F033B80000001401400010014029
:1018F000002001400246012000E05043491EC9B2C9
:10190000FBD2704770B5104E0024002104F1B000E6
:1019100000F0E4F80021084600F0E0F80021102073
:1019200000F0DCF85FF0000506EBC5000121005D6A
:1019300000F0D4F86D1CEDB2802DF5D3641CE4B238
:10194000082CE2D370BD00008004002010B50A46C8
:101950000446002102F1B00000F0C0F8102040EA77
:101960001410002100F0BAF804F00F00BDE8104098
:1019700040F00100002100F0B1B800002DE9FF5F48
:10198000203A98460C46894602F0FF0B0025A3F149
:10199000010A31E0B8F1080F06D0B8F1100F31D1CB
:1019A000194901EB0B1004E018490BEB4B0001EB5C
:1019B00040000027465D300601D50E9A02E00E98E1
:1019C00090B1002221460098FFF794FE641C700637
:1019D000E4B2060EA4EB0901414507D100984C463C
:1019E000401CC0B2009005E00122EBE77F1CFFB273
:1019F000082FE0D36D1CEDB25545CBDBBDE8FF5F92
:101A0000FFF780BFBDE8FF9F5E2500083623000872
:101A10002DE9F84F0026DDE90A791D4692468B46EE
:101A20008046344627E0281B401EC1B20A20FFF73B
:101A300061FFBAFBF0F00A21B0FBF1F201FB1200EA
:101A400026B9691E8C4201DA48B101263030C2B293
:101A500007FB0480C0B23B46CDF8009006E007FBD0
:101A60000480C0B23B462022CDF800905946FFF7D3
:101A700085FF641CE4B2AC42D5D3BDE8F88F2DE9F4
:101A8000F84F1E46DDE90A9A1746884604460025A7
:101A900020E08020A0EB5600A04204D208EB060014
:101AA000002400F0FF08C6F14001414503DA00249C
:101AB000A046FFF709FECDF800A03A78334641462C
:101AC0002046FFF75BFF04EB5600801C6D1CC4B280
:101AD000EDB27F1C4D45DCD3BDE8F88F70B51A4ED2
:101AE000054609B1012200E0002220213046FEF720
:101AF000A6FD002208213046FEF7A1FD00240022A9
:101B000040213046FEF79BFD280601D5012200E06A
:101B1000002280213046FEF792FD0122402130460E
:101B2000FEF78DFD641C6D00E4B2082CE7D30122A2
:101B300008213046FEF783FD3046BDE870400122A3
:101B40002021FEF77CBD0000001401407047704763
:101B5000FEF780BD30B58FB028216846FEF70BFB3D
:101B600014210AA8FEF707FB01210804CDE90010A3
:101B70000024029402250491CDE907504FF4E010AF
:101B800009906846FEF7FAFE0F20CDE90A056802C3
:101B9000CDE90C4002210AA80E94FEF7E3FD0FB038
:101BA00030BD00000D48016841F00101016041684D
:101BB0000B4A1140416001680A4A11400160016806
:101BC00021F480210160416821F4FE0141604FF45D
:101BD0001F0181600449C003086070470010024083
:101BE0000000FFF8FFFFF6FE08ED00E02DE9F041F0
:101BF000044600680169E26821F440511143016123
:101C00002169A0680843616908432168CA6841F2F4
:101C10000C639A430243CA6020684169A26921F4B7
:101C20004071114341614C49206864253226884245
:101C30003CD1FEF75DFE00EBC00101EB00106168D6
:101C40008900B0FBF1F7FEF753FE00EBC00101EB9A
:101C500000106168B0468900B0FBF1F0B0FBF5F010
:101C60006FF01801484307EB800106EB0110B0FB51
:101C7000F5F000F0F006FEF73BFE00EBC00101EBD3
:101C8000001061688900B0FBF1F0B0FBF5F006EBE5
:101C90000016FEF72DFE00EBC00101EB001061689D
:101CA0008900B0FBF1F7FEF723FE3BE0FEF710FEE4
:101CB00000EBC00101EB001061688900B0FBF1F797
:101CC000FEF706FE00EBC00101EB00106168B046B4
:101CD0008900B0FBF1F0B0FBF5F06FF0180148435C
:101CE00007EB800106EB0110B0FBF5F000F0F00609
:101CF000FEF7EEFD00EBC00101EB0010616889000A
:101D0000B0FBF1F0B0FBF5F006EB0016FEF7E0FDDE
:101D100000EBC00101EB001061688900B0FBF1F736
:101D2000FEF7D6FD00EBC00101EB001061688900F1
:101D3000B0FBF1F0B0FBF5F06FF01801484307EB92
:101D4000800108EB0110B0FBF5F0216800F00F00F6
:101D500030448860BDE8F081003801402DE9F04151
:101D6000984617460E460446069D1DE0681C1BD08B
:101D70002DB1FEF769FCA0EB0800A84214D9206839
:101D8000C16821F4D071C1602068416921F001016E
:101D90004161202084F8390084F83A00002084F85A
:101DA00038000320BDE8F0812068006836EA0000B2
:101DB00004D00020B842D9D00020F3E70120F9E791
:101DC000FEE702E008C8121F08C1002AFAD17047D6
:101DD0007047002001E001C1121F002AFBD17047AB
:101DE00042F2283148434FF0E021486100208861E9
:101DF00001220A610A69D30701D0D203FAD508612A
:101E00008861704700EBC0014FF0E0204161002184
:101E10008161012202610269D30701D0D203FAD5A0
:101E200001618161704700002DE9FF5F00264FF4DA
:101E3000A87A4FF001099D4FCDE900A6CDE90296A1
:101E400069463846FEF702FB802000900020019092
:101E50000120DFF85C82029069464046FEF7F6FA00
:101E60004FF4A8440120CDE9004000200290022058
:101E7000904D039069462846FEF7E8FA042000904A
:101E8000012001900020029002200390694638460C
:101E9000FEF7DCFA002221462846FEF7D0FB00229E
:101EA00004213846FEF7CBFB0120FFF7ABFF1021E2
:101EB0003846FEF7BFFB044640213846FEF7BAFB22
:101EC00044EA4004A9153846FEF7B4FB44EA80040E
:101ED00080214046FEF7AEFB44EAC000C5B2764C16
:101EE0000F2D7DD01420FFF77BFF1021BB46384615
:101EF000FEF7A0FB074640215846FEF79BFB47EA4A
:101F000040074FF480715846FEF794FB47EA80077C
:101F100080214046FEF78EFB47EAC0072F400F2F77
:101F200077D001AA01254FF00209CDF800A082E880
:101F3000600269465846FEF789FA80208DE8610202
:101F400069464046FEF782FA4FF4A840CDE9000604
:101F5000DFF86081694602954046FEF777FA042073
:101F6000CDE90006694602955846FEF76FFA002251
:101F700051465846FEF763FB002280214C48FEF78D
:101F80005EFB0220FFF72CFFA9024046FEF752FB42
:101F900005464FF480514046FEF74CFB45EA4005AC
:101FA0004FF4804A51464046FEF744FB45EA80051F
:101FB00004215846FEF73EFB45EAC000C5B24FF487
:101FC000805B00BF4FF480614046FEF733FB06465E
:101FD00059464046FEF72EFB46EA4006514600E0D1
:101FE0005EE04046FEF726FB46EA800604212F48C5
:101FF000FEF720FB46EAC000C0B20F28E2D1072F4F
:1020000008D00B2F17D00D2F26D00E2F36D0002042
:1020100044E032E0072D06D00B2D06D00D2D06D062
:102020000E2D3ED105E0102038E00C2036E00820CF
:1020300034E0042032E0072D06D00B2D06D00D2D04
:1020400006D00E2D2DD105E00F2027E00B2025E036
:10205000072023E0032021E0072D06D00B2D06D01A
:102060000D2D06D00E2D1CD105E00E2016E00A2005
:1020700014E0062012E084F8009012E0072D06D04C
:102080000B2D06D00D2D06D00E2D0AD105E00D200A
:1020900004E0092002E0052000E00120207000E0BB
:1020A0002670207804B0BDE8F09F000000200140B9
:1020B00000100140001401407001002070B5064678
:1020C0000024456804E0E8688047641CE4B21C35DD
:1020D0007078A042F7D870BD70B5414C226890B1BD
:1020E000404D012815D0052813D0092811D00D28FE
:1020F0000FD010284CD003286DD0042869D00C28AC
:1021000022D1906968E0BDE870400121104600F0DE
:102110007BB811794B1E052B16D8012815D0314BF1
:1021200005281B681CD0092829D00D280CD1C80708
:102130000AD05878491C814206D80021104600F088
:1021400063F820681C30206070BD0129FCD0022992
:10215000FAD00021104600F057F820683838F2E72E
:102160000529F1D00629EFD05878891C8142EBD897
:102170000021104600F048F820683830E3E7C8072F
:10218000E2D10021104600F03FF820681C38DAE761
:1021900015482860154940682060002008701449DF
:1021A0000120184A087013490220087012490320C0
:1021B000087012490420087011484FF47A711160B8
:1021C00006210170FFF780FA2868BDE87040FFF72C
:1021D00075BF506900E01069BDE87040004700001D
:1021E000EC020020E8020020000000206004002033
:1021F00061040020620400206304002064040020C5
:10220000650400206804002008B5007907281CD266
:10221000DFE800F01B04090E141C21003D2300918F
:102220001A462C2108E03D237D2200912C2109E053
:1022300029233D2200911821042004E029237D2236
:10224000009118214420FFF773FA08BD15233D22A1
:1022500000910421F0E715237D2200910421F1E78C
:10226000FEF700FAFFF776FCFFF76EF9FFF7FEF9CD
:102270000848084C0C3C4068A060FFF791FAFFF753
:1022800023FA6068FFF71AFFFFF7CEFD2070FFF713
:1022900023FFF9E7F00200202DE9F04708AC4FF0EA
:1022A000AA0894E8E0121B4C84F800804FF0AF08B5
:1022B00084F801804FF0050884F802804FF001088F
:1022C00084F803804FF0060884F804806071A171DF
:1022D000E27123726572A672E77284F80C9084F83A
:1022E0000DC00921601D00F019F8A0730A48FEF71F
:1022F000DBFC2028FAD1FF230F2206490648FEF70F
:1023000041FD002804D10448FEF7CEFC2028FAD174
:10231000BDE8F087C008002080080020034610B503
:102320000020024604E09C5C521C2044C0B2D2B2A1
:102330008A42F8D310BD0000000000000000002F0A
:10234000000000000700070000147F147F14002421
:102350002A7F2A120062640813230036495522504E
:1023600000000503000000001C2241000000412283
:102370001C000014083E08140008083E080800006D
:1023800000A0600000080808080800006060000065
:10239000002010080402003E5149453E0000427FE3
:1023A0004000004261514946002141454B3100182F
:1023B00014127F10002745454539003C4A494930F1
:1023C00000017109050300364949493600064949AB
:1023D000291E0000363600000000563600000008B6
:1023E0001422410000141414141400004122140893
:1023F00000020151090600324959513E007C121178
:10240000127C007F49494936003E41414122007F0C
:102410004141221C007F49494941007F09090901C6
:10242000003E4149497A007F0808087F0000417F4B
:102430004100002040413F01007F08142241007FFD
:1024400040404040007F020C027F007F0408107F64
:10245000003E4141413E007F09090906003E4151CD
:10246000215E007F0919294600464949493100018A
:10247000017F0101003F4040403F001F2040201FDE
:10248000003F4038403F00631408146300070870A1
:10249000080700615149454300007F414100005554
:1024A0002A552A55000041417F0000040201020420
:1024B000004040404040000001020400002054540D
:1024C0005478007F4844443800384444442000385D
:1024D0004444487F00385454541800087E090102CF
:1024E0000018A4A4A47C007F080404780000447DA4
:1024F0004000004080847D00007F102844000000E0
:10250000417F4000007C04180478007C08040478B3
:1025100000384444443800FC24242418001824249F
:1025200018FC007C0804040800485454542000049B
:102530003F444020003C4040207C001C2040201CA8
:10254000003C4030403C004428102844001CA0A01F
:10255000A07C004464544C4414141414141400005B
:10256000000000000000000000000000000000006B
:1025700000F80000000000000033300000000010F0
:102580000C06100C0600000000000000000040C017
:102590007840C0784000043F04043F040400007009
:1025A00088FC08300000001820FF211E0000F00801
:1025B000F000E018000000211C031E211E0000F0A6
:1025C0000888700000001E212324192721101016EE
:1025D0000E000000000000000000000000000000ED
:1025E00000E018040200000000071820400000026C
:1025F0000418E000000000402018070000004040E0
:1026000080F0804040000202010F01020200000041
:1026100000F0000000000101011F010101000000A5
:1026200000000000000080B070000000000000000A
:102630000000000000000001010101010101000093
:10264000000000000000003030000000000000002A
:10265000000080601804006018060100000000E01F
:1026600010080810E000000F102020100F000010CC
:1026700010F8000000000020203F20200000007023
:10268000080808887000003028242221300000301B
:102690000888884830000018202020110E00000013
:1026A000C02010F8000000070424243F240000F894
:1026B0000888880808000019212020110E0000E079
:1026C000108888180000000F112020110E0000381B
:1026D0000808C83808000000003F00000000007033
:1026E000880808887000001C222121221C0000E0BC
:1026F00010080810E0000000312222110F00000035
:1027000000C0C000000000000030300000000000E9
:102710000080000000000000806000000000000059
:1027200080402010080000010204081020004040F2
:102730004040404040000404040404040400000835
:1027400010204080000000201008040201000070EA
:1027500048080808F0000000003036010000C030D2
:10276000C828E810E0000718272423140B000000F5
:10277000C038E0000000203C23020227382008F87F
:10278000888888700000203F202020110E00C03073
:10279000080808083800071820202010080008F84A
:1027A00008080810E000203F202020100F0008F843
:1027B0008888E8081000203F20202320180008F80F
:1027C0008888E8081000203F200003000000C03087
:1027D00008080838000007182020221E020008F808
:1027E00008000008F808203F210101213F200008CF
:1027F00008F8080800000020203F2020000000000A
:102800000808F8080800C08080807F00000008F8F1
:1028100088C028180800203F20012638200008F82A
:10282000080000000000203F20202020300008F891
:10283000F800F8F80800203F003F003F200008F8AB
:1028400030C00008F808203F200007183F00E010C3
:1028500008080810E0000F10202020100F0008F8D2
:1028600008080808F000203F210101010000E010E5
:1028700008080810E0000F18242438504F0008F80A
:10288000888888887000203F2000030C302000706A
:102890008808080838000038202121221C00180868
:1028A00008F8080818000000203F2000000008F881
:1028B00008000008F808001F202020201F000878CA
:1028C000880000C83808000007380E010000F8082A
:1028D00000F80008F800033C0700073C0300081854
:1028E00068808068180820302C03032C30200838BA
:1028F000C800C83808000000203F20000000100871
:102900000808C838080020382621202018000000B8
:1029100000FE020202000000007F40404000000C68
:1029200030C000000000000000010638C0000002B6
:102930000202FE000000004040407F000000000056
:102940000402020204000000000000000000000079
:102950000000000000008080808080808080000275
:102960000204000000000000000000000000000061
:102970008080808000000019242222223F2008F855
:10298000008080000000003F112020110E00000098
:10299000008080800000000E112020201100000027
:1029A00000808088F800000E112020103F200000D9
:1029B000808080800000001F2222222213000080DD
:1029C00080F0888888180020203F20200000000028
:1029D000808080808000006B94949493600008F85D
:1029E000008080800000203F210000203F200080E8
:1029F0009898000000000020203F202000000000E8
:102A000000809898000000C08080807F000008F857
:102A1000000080808000203F24022D30200000082C
:102A200008F8000000000020203F202000008080E7
:102A3000808080808000203F20003F20003F8080F9
:102A4000008080800000203F210000203F20000007
:102A5000808080800000001F202020201F008080B8
:102A600000808000000080FFA12020110E000000E7
:102A7000008080808000000E112020A0FF808080D8
:102A800080008080800020203F2120000100000085
:102A9000808080808000003324242424190000805A
:102AA00080E0808000000000001F20200000808067
:102AB000000000808000001F202020103F20808028
:102AC00080000080808000010E30080601008080B8
:102AD0000080008080800F300C030C300F000080DD
:102AE0008000808080000020312E0E312000808008
:102AF00080000080808080818E7018060100008038
:102B00008080808080000021302C22213000000055
:102B10000000807C020200000000003F40400000F6
:102B20000000FF00000000000000FF0000000002A5
:102B3000027C800000000040403F000000000006D2
:102B40000101020204040000000000000000000077
:102B5000000000000000010203040607080900004D
:102B600000000102030400006F70743100000000D7
:102B70006F707432000000006F707433000000004A
:102B80006F707434000000006F7074350000000036
:102B90006F70743600000000B82B000800000020A1
:102BA00080040000B0010008682E000880040020A6
:102BB000A8080000D21D00082301031A20032302E5
:102BC000061A7408230302131C01242004011A545A
:102BD00008311A200B1113682B14080902140881FC
:102BE000131408BB111408410E2A081C192F111ABE
:102BF000701C1A291C1A831C1ABD1C5A691C195BEB
:102C0000111A781C1A491C1A851C1ABF1C1A911C0F
:102C1000191D79541A691C1A891C1A49045AB91CBD
:102C200069541AA11C1AC1181AC1384B190F1C6912
:102C3000541AD91C1AF91C1AF91C5A791C32041A94
:102C4000801C1311031C083114041A1228591C3259
:102C5000052A888C191C1A691C1A691C4B39101C0E
:102C600019FB111A901C1A811C1AA11C1AA11C1AFA
:102C7000991C9A10A81AB91C1AD91C1AD91C5AF9ED
:102C80001C69A81AF11C1B0D150419901A59909A69
:102C900018381329041B08451C2A45E0191C411A41
:102CA00001C51B94014019791AE8081A03491B90C1
:102CB00002C019351AC8081A741469401A09E81AAA
:102CC000813C1ABB3C13410E2A081C69781A291C46
:102CD0001A831C1ABD1C5A691C195B112A78E81941
:102CE0001C1A851C1ABF1C1A911C9A7C541A691C48
:102CF0001A891C2A4994591C69541AA11C1AC11812
:102D00001AC1384B190F1C69541AD91C1AF91C1A0C
:102D1000F91C5A791C32041A801C1311031C083147
:102D200014041A1228591C32052A888C191C1A6995
:102D30001C1A691C4B39101C19FB111A901C1A81A2
:102D40001C1AA11C1AA11C1A991C9A84A81AB91C35
:102D50001AD91C1AD91C5AF91C69A81AF11C1B0D86
:102D6000150419901A59909A8C381329041B084598
:102D70001C2A45E0191C4113F00242201A01CD1B08
:102D800010034819811A64081A03511B0C04C8194E
:102D90003D1A4408292869481A09F01A81441ABBC7
:102DA0004413410E2A081C69801A291C1A831C1A14
:102DB000BD1C5A691C195B112A78F0191C1A851C54
:102DC0001ABF1C1A911C9AF8541A691C1A891C2AD9
:102DD000499C591C69541AA11C1AC1181AC1384BB4
:102DE000190F1C69541AD91C1AF91C1AF91C5A79A2
:102DF0001C32041A801C1311031C083114041A120B
:102E000028591C32052A888C191C1A691C1A691C3D
:102E10004B39101C19FB111A901C1A811C1AA11C89
:102E20001AA11C1A991C118A03A81AB91C1AD91CB8
:102E30001AD91C5AF91C69A81AF11C1B0D15041982
:102E4000901A59909A08381329041B08451C2A45E2
:102E5000E0191C111D010203048D1AE8C929782903
:082E60002882100400A24A04BC
:0400000508000131BD
:00000001FF
